{
  "_format": "hh-sol-artifact-1",
  "contractName": "IcaCalldata",
  "sourceName": "contracts/ICACALLDATA.sol",
  "abi": [
    {
      "inputs": [],
      "stateMutability": "nonpayable",
      "type": "constructor"
    },
    {
      "anonymous": false,
      "inputs": [
        {
          "indexed": true,
          "internalType": "address",
          "name": "caller",
          "type": "address"
        },
        {
          "indexed": false,
          "internalType": "string",
          "name": "icamsg",
          "type": "string"
        }
      ],
      "name": "IcaCallEvent",
      "type": "event"
    },
    {
      "anonymous": false,
      "inputs": [
        {
          "indexed": true,
          "internalType": "address",
          "name": "caller",
          "type": "address"
        }
      ],
      "name": "IcaRegsiterEvent",
      "type": "event"
    },
    {
      "inputs": [
        {
          "internalType": "string",
          "name": "icamsg",
          "type": "string"
        }
      ],
      "name": "IcaCall",
      "outputs": [],
      "stateMutability": "nonpayable",
      "type": "function"
    },
    {
      "inputs": [
        {
          "internalType": "string",
          "name": "icamsg",
          "type": "string"
        },
        {
          "internalType": "address",
          "name": "caller",
          "type": "address"
        }
      ],
      "name": "IcaCallWhitelist",
      "outputs": [],
      "stateMutability": "nonpayable",
      "type": "function"
    },
    {
      "inputs": [
        {
          "internalType": "address",
          "name": "caller",
          "type": "address"
        }
      ],
      "name": "RegisterWhitelisted",
      "outputs": [],
      "stateMutability": "nonpayable",
      "type": "function"
    },
    {
      "inputs": [],
      "name": "register",
      "outputs": [],
      "stateMutability": "nonpayable",
      "type": "function"
    },
    {
      "inputs": [
        {
          "internalType": "address",
          "name": "to",
          "type": "address"
        }
      ],
      "name": "whitelist",
      "outputs": [],
      "stateMutability": "nonpayable",
      "type": "function"
    },
    {
      "inputs": [
        {
          "internalType": "address",
          "name": "",
          "type": "address"
        }
      ],
      "name": "whitelisted",
      "outputs": [
        {
          "internalType": "bool",
          "name": "",
          "type": "bool"
        }
      ],
      "stateMutability": "view",
      "type": "function"
    }
  ],
  "bytecode": "0x608060405234801561001057600080fd5b5060016000803373ffffffffffffffffffffffffffffffffffffffff1673ffffffffffffffffffffffffffffffffffffffff16815260200190815260200160002060006101000a81548160ff0219169083151502179055506108a2806100776000396000f3fe608060405234801561001057600080fd5b50600436106100625760003560e01c80631aa3a008146100675780632775f64d1461007157806327d4c6991461008d5780639b19251a146100a9578063d5ff2dd2146100c5578063d936547e146100e1575b600080fd5b61006f610111565b005b61008b600480360381019061008691906104d7565b610156565b005b6100a760048036038101906100a29190610541565b610227565b005b6100c360048036038101906100be91906104d7565b610304565b005b6100df60048036038101906100da9190610500565b6103e9565b005b6100fb60048036038101906100f691906104d7565b61043a565b6040516101089190610623565b60405180910390f35b3373ffffffffffffffffffffffffffffffffffffffff167fbd7484e0b3ea2421f655f0431cf2bbccfd10e117067b35d2531d79d06e8950da60405160405180910390a2565b6000803373ffffffffffffffffffffffffffffffffffffffff1673ffffffffffffffffffffffffffffffffffffffff16815260200190815260200160002060009054906101000a900460ff166101e1576040517f08c379a00000000000000000000000000000000000000000000000000000000081526004016101d890610680565b60405180910390fd5b8073ffffffffffffffffffffffffffffffffffffffff167fbd7484e0b3ea2421f655f0431cf2bbccfd10e117067b35d2531d79d06e8950da60405160405180910390a250565b6000803373ffffffffffffffffffffffffffffffffffffffff1673ffffffffffffffffffffffffffffffffffffffff16815260200190815260200160002060009054906101000a900460ff166102b2576040517f08c379a00000000000000000000000000000000000000000000000000000000081526004016102a990610680565b60405180910390fd5b8073ffffffffffffffffffffffffffffffffffffffff167ff5c73d2dcf751b60135bd0ec5938aace0f426654c6f279fd13de31ea053b5b59836040516102f8919061063e565b60405180910390a25050565b6000803373ffffffffffffffffffffffffffffffffffffffff1673ffffffffffffffffffffffffffffffffffffffff16815260200190815260200160002060009054906101000a900460ff1661038f576040517f08c379a000000000000000000000000000000000000000000000000000000000815260040161038690610660565b60405180910390fd5b60016000808373ffffffffffffffffffffffffffffffffffffffff1673ffffffffffffffffffffffffffffffffffffffff16815260200190815260200160002060006101000a81548160ff02191690831515021790555050565b3373ffffffffffffffffffffffffffffffffffffffff167ff5c73d2dcf751b60135bd0ec5938aace0f426654c6f279fd13de31ea053b5b598260405161042f919061063e565b60405180910390a250565b60006020528060005260406000206000915054906101000a900460ff1681565b600061046d610468846106c5565b6106a0565b90508281526020810184848401111561048557600080fd5b610490848285610750565b509392505050565b6000813590506104a781610855565b92915050565b600082601f8301126104be57600080fd5b81356104ce84826020860161045a565b91505092915050565b6000602082840312156104e957600080fd5b60006104f784828501610498565b91505092915050565b60006020828403121561051257600080fd5b600082013567ffffffffffffffff81111561052c57600080fd5b610538848285016104ad565b91505092915050565b6000806040838503121561055457600080fd5b600083013567ffffffffffffffff81111561056e57600080fd5b61057a858286016104ad565b925050602061058b85828601610498565b9150509250929050565b61059e81610724565b82525050565b60006105af826106f6565b6105b98185610701565b93506105c981856020860161075f565b6105d2816107f2565b840191505092915050565b60006105ea600b83610701565b91506105f582610803565b602082019050919050565b600061060d600f83610701565b91506106188261082c565b602082019050919050565b60006020820190506106386000830184610595565b92915050565b6000602082019050818103600083015261065881846105a4565b905092915050565b60006020820190508181036000830152610679816105dd565b9050919050565b6000602082019050818103600083015261069981610600565b9050919050565b60006106aa6106bb565b90506106b68282610792565b919050565b6000604051905090565b600067ffffffffffffffff8211156106e0576106df6107c3565b5b6106e9826107f2565b9050602081019050919050565b600081519050919050565b600082825260208201905092915050565b600061071d82610730565b9050919050565b60008115159050919050565b600073ffffffffffffffffffffffffffffffffffffffff82169050919050565b82818337600083830152505050565b60005b8381101561077d578082015181840152602081019050610762565b8381111561078c576000848401525b50505050565b61079b826107f2565b810181811067ffffffffffffffff821117156107ba576107b96107c3565b5b80604052505050565b7f4e487b7100000000000000000000000000000000000000000000000000000000600052604160045260246000fd5b6000601f19601f8301169050919050565b7f4e4f545f414c4c4f574544000000000000000000000000000000000000000000600082015250565b7f4e4f545f57484954454c49535445440000000000000000000000000000000000600082015250565b61085e81610712565b811461086957600080fd5b5056fea2646970667358221220ee8fe4627867b413e0f87110886375f18e9dfac9116cc0b1d4fb2ba6311bdaf164736f6c63430008010033",
  "linkReferences": {},
  "deployedLinkReferences": {}
}